:0C0000000C943B020C9469020C948802E2
:040024000C94C50271
:14005400000061450000004000000000000020410000C84247
:140068009A99D9400000804400000040000000400AD72340B0
:14007C0000007A4400000000004444440044AAAA000000AAA4
:14009000EEAAEEAA66CCCC66EEAA224488AA44AA44AA664412
:1400A400440000004488888844442222224400AA44AA00005E
:1400B80044EE440000000044880000EE00000000000044229E
:1400CC0022448888EEAAAAAAEE44CC4444EEEE22EE88EEEEE8
:1400E00022EE22EEAAAAEE2222EE88EE22EECC88EEAAEEEE2A
:1400F40022448888EEAAEEAAEEEEAAEE2266004400440000CE
:1401080044004488224488442200EE00EE008844224488CC1D
:14011C002266004444AAEE8866EEAAEEAAAACCAAEEAACCEE97
:14013000888888EECCAAAAAACCEE88EE88EEEE88EE8888EE63
:140144008888AAEEAAAAEEAAAAEE444444EE222222AAEE883B
:14015800AACCCCAA88888888EEAAEEEEAAAA00CCAAAAAA44B1
:14016C00AAAAAA44EEAAEE888844AAAAEE66EEAACCEEAAEED1
:1401800088EE22EEEE44444444AAAAAAAAEEAAAAAAAA44AABB
:14019400AAEEEEAA00AA4444AAAAAA444444EE224488EEEE73
:1401A800888888EE888844222244AA00000000000000EE88C1
:1401BC004400000000000000000044AAAA6688CCAAAACC0079
:1401D000668888662266AAAA660044AACC666644EE444400BD
:1401E40044AA66CC88CCAAAAAA4400444444440044448888A9
:1401F80088AACCAA444444444400EEEEAAAA00CCAAAAAA00FD
:14020C0044AAAA4400CCAACC880066AA66220088EE8888001A
:1402200066CC22CC44EE44444400AAAAAA4400AAAA4444008E
:14023400AAAAEEAA00AA4444AA00AAAA66CC00EE66CCEE2238
:1402480044CC44224444444444884466448800CCAA00000064
:14025C0000000000000000000000005F000000030003001415
:140270003E143E14242A7F2A12433308666136495522500042
:1402840005030000001C2241000041221C0014083E081408E2
:14029800083E08080050300000080808080800606000002074
:1402AC00100804023E5149453E0004027F004261514946229B
:1402C000414949361814127F1027454545393E4949493201D9
:1402D400017109073649494936264949493E003636000000A2
:1402E800563600000814224100141414141400412214080212
:1402FC00015109063E4159555E7E0909097E7F494949363E1D
:14031000414141227F4141413E7F494949417F090909013E00
:140324004141493A7F0808087F00417F4100304040403F7FFB
:14033800081422417F404040407F020C027F7F0204087F3E5B
:14034C004141413E7F090909061E2121215E7F0909097626E7
:140360004949493201017F01013F4040403F1F2040201F7F7E
:140374002010207F41221C22410708700807615149454300B3
:140388007F4100000204081020040201020440404040400016
:14039C0001020400000000000020545454787F4444443838F7
:1403B00044444444384444447F385454541804047E050508C2
:1403C4005454543C7F0804047800447D40002040443D007F85
:1403D8001028440000417F40007C047804787C0804047838E5
:1403EC00444444387C14141408081414147C007C08040448A5
:140400005454542004043F44443C4040207C1C2040201C3CB1
:140414004030403C44281028440C5050503C4464544C44003C
:140428000836414100007F00004141360800020102040200B6
:14043C00000000000000004000000047FFFFFF7F00000000A9
:1404500000800000000000000000000200006D5768006D413C
:11046400680052003A0073746172740073746F70009F
:14047600CFE5D4E0CDBFDEBFC053D0400AEA08830024E3E850
:14048A00F0E013E0E832F10711F00192FBCF0083E2E5F4E00D
:14049E00A0E6B0E014E0E537F10721F0C89531960D92F9CF90
:1404B2000E942509FFCF22242BBA2ABA8FEF88BB87BB85BB46
:1404C60084BB8FE782BB80E881BB08952A928A932FB62A9275
:1404DA0020906500222071F4979A81E0809365002224209250
:1404EE00140120921501209216018093640004C097982224A4
:140502002092650029902FBE8991299018952A928A939A93A2
:140516002FB62A9220B220926600822D8071803151F480919F
:14052A006800909169000196909369008093680009C0809153
:14053E006800909169000197909369008093680029902FBE72
:140552009991899129901895222423BE8FEC82BF82E083BF64
:14056600089587B1806C87B93D983C983B983A983998389891
:14057A0086B1856086B93198379A3598339808950E944A1146
:14058E0029978FEC82BF8091120190911301019690931301B6
:1405A2008093120180916500813009F05CC185EB9AE2209046
:1405B6001201309013018215930508F052C1222433243092B1
:1405CA00130120921201809114018F5F809314018BE32090EA
:1405DE001401821580F5222420921401809115018F5F8093B3
:1405F200150112E0082F0E94DA10002311F520906A00309027
:140606006B00369427943694279436942794369427948FE3EF
:14061A008219E6E8F0E0A0918500BB27AE0FBF1F8C93809130
:14062E0085008F5F809385008FE720908500821510F4809354
:1406420085008BE320901501821540F4222420921501809101
:1406560016018F5F8093160140900C0150900D0120900A01DB
:14066A0030900B015A924A923A922A920CE710E00E94361194
:14067E003A932A931A930A9308E710E00E9436113A932A9342
:140692001A930A9304E710E00E9436113A932A931A930A9372
:1406A60000E710E00E9436113A932A931A930A9300916A00B1
:1406BA0010916B00169507950E94CD113A932A931A930A9385
:1406CE000E94161300916A0010916B00017010700E94CD11D5
:1406E2003A932A931A930A930E9427120E9416130E941613BF
:1406F6000E9416130CE610E00E9436113A932A931A930A9386
:14070A000E94881208E610E00E9436113A932A931A930A9304
:14071E000E9488120E942A1210930B0100930A0130930D018F
:1407320020930C0108E710E00E9436113A932A931A930A9357
:1407460004E710E00E9436113A932A931A930A9300E710E030
:14075A000E9436113A932A931A930A9300916A0010916B00C7
:14076E00169507950E94CD113A932A931A930A930E94161311
:1407820000916A0010916B00017010700E94CD113A932A9361
:140796001A930A930E9427120E9416130E941913FE0105830A
:1407AA00168327833087409008015090090120900601309007
:1407BE0007015A924A923A922A9204E610E00E9436113A933F
:1407D2002A931A930A93FE0125843684478450885A924A923F
:1407E6003A922A920E9416130CE610E00E9436113A932A9357
:1407FA001A930A930E94881200E610E00E9436113A932A931C
:14080E001A930A93FE0121883288438854885A924A923A92EF
:140822002A920E9416130CE610E00E9436113A932A931A9339
:140836000A930E9488120E94161308E610E00E9436113A9376
:14084A002A931A930A930E9488120E942A121093070100933B
:14085E000601309309012093080180912501909126010196E0
:14087200909326018093250180E090E1209025013090260161
:14088600821593050CF066C4369A349BFECF24B033243092B0
:14089A0024012092230125B03324322C2224409023015090AB
:1408AE002401422853285092240140922301120130926B00EF
:1408C20020926A00349A20906500222029F41201309261008E
:1408D6002092600080916500813009F0B7C08091640081303F
:1408EA0009F0B2C022242092640020902301309024013092B8
:1408FE0063002092620008E710E00E9436113A932A931A9370
:140912000A9304E710E00E9436113A932A931A930A932090EC
:140926006200309063000091600010916100021913090E946C
:14093A00CD113A932A931A930A930E9416130E9416130CE66F
:14094E0010E00E9436113A932A931A930A930E94881208E7BD
:1409620010E00E9436113A932A931A930A9304E710E00E9457
:1409760036113A932A931A930A9300916200109163000E94B9
:14098A00CD113A932A931A930A930E9416130E9416130CE61F
:14099E0010E00E9436113A932A931A930A930E94881208E66E
:1409B20010E00E9436113A932A931A930A930E9488120E94A6
:1409C6008B1210930F0100930E0130931101209310010CE5A1
:1409DA0010E00E94361110930B0100930A0130930D0120935F
:1409EE000C010CE510E00E9436111093070100930601309316
:140A020009012093080122243324309284002092830013C02F
:140A160086E890E0E0918300F0918400E80FF91F22242082FE
:140A2A0080918300909184000196909384008093830080919A
:140A3E008300909184008038E0E09E0728F3222420928500C7
:140A52002090680030906900409023015090240142145304A9
:140A660040F480916500813021F4979822242092650008E791
:140A7A0010E00E9436113A932A931A930A9300912301109165
:140A8E0024010E94CD113A932A931A930A930E9416130CE61E
:140AA20010E00E9436113A932A931A930A930E948B121093B1
:140AB600200100931F01309322012093210108E510E00E941E
:140ACA0036113A932A931A930A934090210150902201209058
:140ADE001F01309020015A924A923A922A920E941913109342
:140AF200200100931F01309322012093210183E08C8381E08E
:140B06008A8328833983980107E111E00E94740F22242092D8
:140B1A00270300270E94FD0E81E08C8382E08A8387E191E011
:140B2E009983888322E002E00E94DD0C80916500813061F4A1
:140B420081E08C838A838EE790E09983888322E000E60E948C
:140B5600DD0C0BC081E08C838A8388E790E09983888322E052
:140B6A0000E60E94DD0C82E0888320911601332707E111E09E
:140B7E000E94330F81E08C838A8387E191E0998388832CE0F6
:140B920000E50E94DD0C81E08C838A8386E790E0998388835E
:140BA6002CE00CE50E94DD0C82E0888320911501332707E13D
:140BBA0011E00E94330F81E08C838A8387E191E099838883D5
:140BCE002CE002E60E94DD0C81E08C838A8386E790E099831E
:140BE20088832CE00EE60E94DD0C82E08883209114013327DC
:140BF60007E111E00E94330F81E08C838A8387E191E09983BC
:140C0A0088832CE004E70E94DD0C08E710E00E9436113A93B4
:140C1E002A931A930A9300E710E00E9436113A932A931A93C4
:140C32000A930091680010916900169507950E94CD113A937A
:140C46002A931A930A930E9416130091680010916900017054
:140C5A0010700E94CD113A932A931A930A930E9427120E9435
:140C6E0016130CE610E00E9436113A932A931A930A930E9408
:140C82008B121093200100931F01309322012093210108E5A2
:140C960010E00E9436113A932A931A930A93409021015090CB
:140CAA00220120901F01309020015A924A923A922A920E9470
:140CBE0019131093200100931F01309322012093210183E061
:140CD2008C8381E08A8328833983980107E111E00E94740F93
:140CE60081E08C838A8387E191E09983888328E100E60E94EC
:140CFA00DD0C83E08C8381E08A83409010015090110120909A
:140D0E000E0130900F0148825982910107E111E00E94740FBD
:140D220081E08C8382E08A8387E191E09983888322E102E0F9
:140D36000E94DD0C81E08C838A8384E790E09983888327E197
:140D4A000CE30E94DD0C81E08C8385E08A8340900C0150907C
:140D5E000D0120900A0130900B015A924A923A922A9204E5B3
:140D720010E00E9436113A932A931A930A930E948B122883D6
:140D86003983980107E111E00E94740F81E08C8382E08A8327
:140D9A0087E191E09983888322E202E00E94DD0C81E08C8364
:140DAE008A8380E790E09983888327E200E50E94DD0C81E04C
:140DC2008C8385E08A83409008015090090120900601309062
:140DD60007015A924A923A922A9204E510E00E9436113A9322
:140DEA002A931A930A930E948B1228833983980107E111E0D6
:140DFE000E94740F81E08C838A8387E191E09983888324E338
:140E120002E00E94DD0C81E08C838A838CE690E099838883D9
:140E260024E300E50E94DD0C22243324309284002092830029
:140E3A0018C081E0888386E890E0E0918300F0918400E80F92
:140E4E00F91F2081009183000E94610E809183009091840079
:140E62000196909384008093830020908500332440908300C9
:140E76005090840042145304F0F20E94170E81E08093270310
:140E8A0000270E94FD0E81E08C8382E08A8387E191E09983AC
:140E9E00888322E002E00E94DD0C80916500813061F481E0E9
:140EB2008C838A838EE790E09983888322E000E60E94DD0C91
:140EC6000BC081E08C838A8388E790E09983888322E000E6E2
:140EDA000E94DD0C08E710E00E9436113A932A931A930A93DD
:140EEE0000E710E00E9436113A932A931A930A930091680063
:140F020010916900169507950E94CD113A932A931A930A9336
:140F16000E9416130091680010916900017010700E94CD1188
:140F2A003A932A931A930A930E9427120E9416130CE610E057
:140F3E000E9436113A932A931A930A930E948B1210932001DF
:140F520000931F01309322012093210108E510E00E94361157
:140F66003A932A931A930A93409021015090220120901F01DE
:140F7A00309020015A924A923A922A920E94191310932001A0
:140F8E0000931F01309322012093210183E08C8381E08A8301
:140FA20028833983980107E111E00E94740F81E08C838A83C0
:140FB60087E191E09983888328E100E60E94DD0C83E08C833B
:140FCA0081E08A83409010015090110120900E0130900F0143
:140FDE0048825982910107E111E00E94740F81E08C8382E0F8
:140FF2008A8387E191E09983888322E102E00E94DD0C81E00D
:141006008C838A8384E790E09983888327E10CE30E94DD0C36
:14101A0081E08C8385E08A8340900C0150900D0120900A015A
:14102E0030900B015A924A923A922A9204E510E00E943611D0
:141042003A932A931A930A930E948B1228833983980107E19F
:1410560011E00E94740F81E08C8382E08A8387E191E099839C
:14106A00888322E202E00E94DD0C81E08C838A8380E790E0A2
:14107E009983888327E200E50E94DD0C81E08C8385E08A83DC
:14109200409008015090090120900601309007015A924A9240
:1410A6003A922A9204E510E00E9436113A932A931A930A9318
:1410BA000E948B1228833983980107E111E00E94740F81E084
:1410CE008C838A8387E191E09983888324E302E00E94DD0C7E
:1410E20081E08C838A838CE690E09983888324E300E50E94E6
:1410F600DD0C22243324309284002092830018C081E08883A1
:14110A0086E890E0E0918300F0918400E80FF91F20810091B9
:14111E0083000E94610E8091830090918400019690938400B2
:1411320080938300209085003324409083005090840042147A
:141146005304F0F20E94170E22243324309226012092250137
:14115A0029960E9461111895F894A9D985B7886085BF85B74F
:14116E008B7F85BF85B7826085BF85B78E7F85BF80EC8BBF7A
:1411820080B78B7F80BF81E089BFE6D9ECD9789422242092A8
:1411960065002092160120921501209214013324309213015B
:1411AA002092120180E092E09093690080936800309263006E
:1411BE00209262003092610020926000209264000CE510E0DD
:1411D2000E94361110930B0100930A0130930D0120930C0142
:1411E6000CE510E00E94361110930701009306013093090119
:1411FA002093080122243324309284002092830013C086E8CC
:14120E0090E0E0918300F0918400E80FF91F2224208280915B
:14122200830090918400019690938400809383008091830028
:14123600909184008038E0E09E0728F32224209285000895AD
:14124A008BDF0E94F50D0E94170EFFCF08950E949B100E9461
:14125E000E112497002403940B8241E0EE242E8433240A898B
:14127200112702191309112707FD10950E94951058012888C8
:1412860033240C89112702191309112707FD10950E949510D1
:14129A0068010A880E85001610F48FEF8B830C8808890016D1
:1412AE0008F44FEFAC14BD0494F102E010E096010E94F210DF
:1412C2006801B6016A197B091B012A183B083A8229821DC00C
:1412D6000E88088228890E850E94610E6030E0E07E073CF48A
:1412EA006C0D7D1D0E840B81000E0E860BC029803A80620D80
:1412FE00731D0E840B81000E0E860888040E088AE3942E2C87
:141312003324A214B304F4F630C002E010E095010E94F2101D
:141326005801B5016C197D091B012C183D083A8229821CC0B1
:14133A000E88088228890E850E94610E6030E0E07E0734F42D
:14134E006A0D7B1D0888040E088A0BC029803A80620D731D1B
:141362000E840B81000E0E860888040E088AE3942E2C33245B
:14137600C214D304FCF624960E940B11249608950E949B10A8
:14138A000E940E1125978F89813011F50F840B89001618F4BA
:14139E00402DA02E02C04B89AF8409880D89001618F4E02CE2
:1413B200602F0FC0ED8869890CC0CE2C07C0098C08822C2D5D
:1413C600042F0E94610EC3946C15B8F74395A41690F724C04B
:1413DA00098C0C8209880A820B88088229890F8536DF098CB2
:1413EE000C820D880A820B8808822D890F852DDF098C0C82A6
:141402000D880A820F8408822989002D24DF098C0C820D88FE
:141416000A820B8808822989002D1BDF25960E940B1124960D
:14142A0008950E949B100E940E112E97002403940C860D865E
:14143E0000240B86288C33240C8D112702191309112707FD96
:1414520010950E94951078012A8C33240E8D1127021913090A
:14146600112707FD10950E949510B801C8A0C6942A8D3327BE
:14147A000E94F2101801288D332787010E94F210C801820D0E
:14148E00931D809590958F5F9F4F9A8389832E8D33278B01BA
:1414A2000E94F21018012C8D332787010E94F210C801820DE2
:1414B600931D809590958F5F9F4F9C838B830C8C088D0016EC
:1414CA0070F429803A803A8629862B803C803A82298229845D
:1414DE003A843C822B828FEF8C870E8C0A8D001670F42980EC
:1414F2003A803A8629862B803C803A82298229843A843C82C6
:141506002B828FEF8D87E616F7060CF47DC002E010E09B01EE
:14151A000E94F21018012E183F083E822D822E183F083886B9
:14152E002F8200240B8665C04C2D419531C0242E332427FC12
:1415420030942A8D3327220D331D8B010E94F2101801288D43
:14155600332787010E94F210A02EA20CB31C29803A808A2D96
:14156A009927820D931D8030E0E09E0794F02B803C804A2CF8
:14157E005524420C531C22243324241435043CF00AA00882B5
:141592002A8D240F088D0E94610E439512E008A10E94DA10B6
:1415A6002C2C200E421538F28D819E818030E0E09E0784F470
:1415BA0002E010E09B010E94F2102D803E80200E311E3E8263
:1415CE002D82088C0C85000E088E10C02F8038844D805E80AB
:1415E200420C531C5E824D82088C0C85000E088E0A8C0D8598
:1415F600000E0A8E0B8403940B862B843324E214F3040CF095
:14160A0095CF7CC002E010E097010E94F2101801261A370A84
:14161E003E822D82261A370A38862F8200240B8665C08D8171
:141632009E818030E0E09E0784F402E010E097010E94F210EA
:141646002D803E80200E311E3E822D820A8C0D85000E0A8E6B
:14165A0010C02F8038844D805E80420C531C5E824D82088C96
:14166E000C85000E088E0A8C0D85000E0A8E4C2D419531C025
:14168200242E332427FC30942A8D3327220D331D8B010E9406
:14169600F2101801288D332787010E94F210A02EA20CB31C9F
:1416AA0029803A808A2D9927820D931D8030E0E09E0794F07A
:1416BE002B803C804A2C5524420C531C2224332424143504F7
:1416D2003CF00AA008822A8D088D040F0E94610E439512E06A
:1416E60008A10E94DA102C2C200E421538F20B8403940B86FD
:1416FA002B843324621573050CF095CF2E960E940B1124964B
:14170E0008950E949B100E940E112597ED88CF88AA246B89D2
:1417220041E0062E461B8E2D813069F5CC822988260E2A8254
:141736004F844A0C4882222D0F850A198ADDCC822988261A00
:14174A002A824F844A0C4882222D0F850A197FDDCC8229888B
:14175E002A0C2A824F84460E4882222D0F85061B74DDCC8201
:1417720029882A182A824F84460E4882222D0F85061B69DD89
:1417860040C0C882262F0988200D0A2D0F84000D0E94610E0A
:14179A00C8822A2D0988200D062F0F84000D0E94610EC882AC
:1417AE00262F0988200D0F850A190E94610EC8822A2D09881A
:1417C200200D0F85061B0E94610EC88229892A19062F0F8419
:1417D600000D0E94610EC8822989261B0A2D0F84000D0E942B
:1417EA00610EC8822989261B0F850A190E94610EC88229897B
:1417FE002A190F85061B0E94610E4030B4F42A2C332427FCE6
:141812003094822D8F5FA82E02E010E091010E94F210C801BA
:141826000396242E332427FC3094280E391E422D20C02A2C53
:14183A00332427FC3094822D8F5FA82E462E552447FC5094D5
:14184E00642D6150222D332727FD30952419350902E010E065
:141862000E94F210C8010596242E332427FC3094280E391E4D
:14187600422D6A150CF055CF25960E940B11249608950E94DE
:14188A009B100E940E1126976E894427552782C0FA010C8872
:14189E001D88E00DF11D20803324822D803220F18EE7821521
:1418B20008F1EE24FF24FA010C881D88E00DF11D208085E0C0
:1418C600829D100180EE9FEF280E391EF701E20DF31DE491E9
:1418DA00CE010196D701A80FB91FEC93C70101967C0185301D
:1418EE00E0E09E0714F315C0EE24FF2480E890E0F701E80FA9
:14190200F91FE491CE010196D701A80FB91FEC93C701019699
:141916007C018530E0E09E076CF388898D5F803828F00024D6
:14192A00088A8A898A5F8A8B83E090E05C01CC24DD2401E004
:14193E0010E095010E947811CE010196F601E80FF91F2080D8
:14195200332420223122222011F4332041F068832A893327D2
:141966002C0D3D1D08890E94610EC60101966C018530E0E0F8
:14197A009E07FCF2C50101975C0108880394088A22243324B5
:14198E002816390694F24F5F5F4F08880394088AFA010C889E
:1419A2001D88E00DF11D2080222009F075CF26960E940B11F8
:1419B600249608950E949B100E940E112897C1C0EE89FF8979
:1419CA0080818335E8F4EE2417C0EE89FF89208085E0829D68
:1419DE00100180EC91E0280E391EEE2DFF27E20DF31DE491C5
:1419F200CE010196AE2DBB27A80FB91FEC93E3948E2D8530C9
:141A060030F337C08EE7EE89FF8920808215E8F0EE2417C046
:141A1A00EE89FF89208085E0829D100180EC91E0280E391E1A
:141A2E00EE2DFF27E20DF31DE491CE010196AE2DBB27A80F15
:141A4200B91FEC93E3948E2D853030F314C0EE240FC080E614
:141A560092E0EE2DFF27E80FF91FE491CE010196AE2DBB2722
:141A6A00A80FB91FEC93E3948E2D853070F3EE89FF89208071
:141A7E0033243F822E82C1018A30E0E09E0729F08D30E0E015
:141A92009E0751F00CC087E0088C809D802D8F5F0C88080E31
:141AA6000C8A47C000240A8A44C085E0088C809D8A89800D1D
:141ABA00803850F000240A8A87E0088C809D802D8F5F0C8821
:141ACE00080E0C8A66272FC0CC2425C001E01C2D0E947F11AB
:141AE200CE010196E62FFF27E80FF91F20802022B9F044274A
:141AF60012C0AA240CC00A8C0882088CC09C2C89200D240F4B
:141B0A000A890A0D0E94610EA394088CA01488F34395088CA6
:141B1E00401558F3C3948C2D8730C0F263950A88088D000E6D
:141B32000A8A653078F28E899F8901969F8B8E8B0A880394CA
:141B46000A8AEE89FF892080222009F039CF28960E940B1199
:141B5A00249608950E941611AC98AA9A442709C007FD02C0D5
:141B6E00A89801C0A89A000FA998A99A43954830A8F30E9400
:141B8200191108950E941611AC98AA98442709C007FD02C03F
:141B9600A89801C0A89A000FA998A99A43954830A8F30E94D8
:141BAA00191108950E941011A02E40E246954695469566278F
:141BBE0010C0062F0055E0DF01E0DEDF00E1DCDFCC2403C00D
:141BD2000A2DC4DFC39480E88C15D0F76395461770F70E94A0
:141BE60008110895AB98AB9A0FEACADF0FE2C8DF01E8C6DFE5
:141BFA0008E2C4DF04E2C2DF01EAC0DF08ECBEDF00EABCDF23
:141C0E0004EABADF06EAB8DF0CEAB6DF0027B4DF00E4B2DFFA
:141C220000EEB0DF0027E8D001D008950E9412112090270345
:141C3600222009F544E066271BC0062F0055A0DF00279EDF21
:141C4A0000E19CDFAA240EC084E08A9D100187E291E0280EE2
:141C5E00391EE62FFF27E20DF31D008179DFA39480E88A15CA
:141C720078F76395641718F320C044E066271BC0062F0C5470
:141C86007FDF00277DDF00E17BDFAA240EC084E08A9D1001F6
:141C9A0087E291E0280E391EE62FFF27E20DF31D008158DFDD
:141CAE00A39480E88A1578F76395641718F30E9405110895A2
:141CC2000E941411422F602F20902703222009F046C0842F79
:141CD600869586958695843008F089C08C818130E9F484E0B5
:141CEA00869F100187E291E0280E391E28E030E0042F1127C6
:141CFE000E94A4102801420C531C18E0042F0E94DA10102FA0
:141D120001E00E947F11F2012080202A208269C084E0869F79
:141D2600100187E291E0280E391E28E030E0042F11270E940C
:141D3A00A4102801420C531C18E0042F0E94DA10102F01E024
:141D4E000E947F11202E2094F2013080322030824AC083E039
:141D6200242E269426942694821508F042C08C818130F9F4B1
:141D760084E0869F100187E291E0280E391E28E030E0042F0D
:141D8A0011270E94A410C8010497820D931D1C0118E0042FCC
:141D9E000E94DA10102F01E00E947F11F1014080402A408275
:141DB20020C084E0869F100187E291E0280E391E28E030E024
:141DC600042F11270E94A410C8010497820D931D1C0118E090
:141DDA00042F0E94DA10102F01E00E947F11402E4094F101B0
:141DEE005080542050820E94021108950E9414110130C1F4CC
:141E0200442713C066270EC084E0849F100187E291E0280E8B
:141E1600391EE62FFF27E20DF31D8FEF80836395643080F3A7
:141E2A004395403858F317C0442713C066270EC084E0849F12
:141E3E00100187E291E0280E391EE62FFF27E20DF31D222498
:141E520020826395643080F34395403858F30E9402110895EE
:141E66000E941011590168016885442713C02AE030E0850117
:141E7A000E94A010C801C096E62FFF27EC0DFD1D80832AE088
:141E8E0030E085010E94A41058014395262E33246150222085
:141EA20041F7242E33244F5FE22DFF27EC0DFD1D222420826D
:141EB6000E94081108950E941211622FA02E41E050E006C085
:141ECA002A2D33278A010E94F210A801262E332461502220DD
:141EDE00A9F78A010E94051108950E949B100E940E112497A7
:141EF2008E8866274427FE0120883188428853885A924A9201
:141F06003A922A9204E414E00E9436113A932A931A930A93A6
:141F1A000E94E512D4F0FE0120883188428853885A924A9289
:141F2E003A922A9204E414E00E9436113A932A931A930A937E
:141F42000E9432120E948511C801805090485C0108C0FE01D8
:141F560000891189228933890E94851158016501282D0AE0B7
:141F6A002F93A7DF8F901801FE0140885188628873887A9252
:141F7E006A925A924A9200E414E00E9436113A932A931A9393
:141F92000A938601169507950E94CD113A932A931A930A937C
:141FA6000E9416138601017010700E94CD113A932A931A932D
:141FBA000A930E9427120E942F1200E414E00E9436113A932A
:141FCE002A931A930A938101169507950E94CD113A932A9325
:141FE2001A930A930E9416138101017010700E94CD113A9316
:141FF6002A931A930A930E9427120E941913FE010083118311
:14200A0022833383FE0120803180428053805A924A923A92EE
:14201E002A9204E414E00E9436113A932A931A930A930E94B7
:14203200E512D4F0FE0120803180428053805A924A923A9266
:142046002A9204E414E00E9436113A932A931A930A930E948F
:14205A0032120E948511C801805090487C0108C0FE010081C0
:14206E001181228133810E9485117801570115C02AE030E07D
:1420820086010E94BE10C801C096EC89FF270E841F84E00D77
:14209600F11D80832AE030E086010E94C010680163952C88FD
:1420AA003324822D81508C8B222021F7E62FFF270E841F846A
:1420BE00E00DF11D8EE2808319C0282C3324E62FFF27E20DF2
:1420D200F31D0E841F84E00DF11D2AE030E085010E94BE10AA
:1420E600C801C09681832AE030E085010E94C0105801439580
:1420FA00282C3324822D8150882E222001F7242E3324E62FF9
:14210E00FF27E20DF31D0E841F84E00DF11D222421822496C5
:142122000E940B112496089517FF0895109501951F4F08959B
:142136003A932A931A930A9308956894DA92D12E04C0E8947D
:14214A00DA92D12ED32617FF04C0109500950F5F1F4F37FFF7
:14215E0004C0309520952F5F3F4F0E94C110D7FE04C0109562
:1421720000950F5F1F4FD9900895689401C0E894EA92FA92A1
:142186008A93EE24FF2480E1000F111FEE1CFF1CE216F3063D
:14219A0018F0E21AF30A03958A95A1F716F40E2D1F2D899136
:1421AE00F990E9900895689401C0E8942A93FA92EA92FF245D
:1421C200EE2420E1000FFF1CEE1CE11610F0E11A03952A9579
:1421D600B9F70EF40E2DE990F990299108950A921A928A934A
:1421EA009A93029FC001129F900D039F900D8C0199918991F4
:1421FE00199009900895E2E00C941A11E4E00C941A11E8E00A
:142212000C941A11EE270C941A11FA92EA92DA92CA92BA92F1
:14222600AA927A936A935A934A930895E1E049915991E0FD95
:14223A00089569917991E1FD0895A990B990E2FD0895C9901D
:14224E00D990E3FD0895E990F9900895009510952095309543
:142262000F5F1F4F2F4F3F4F0895EA93FA930A92E02FF12F0E
:14227600C895002D3196C895102D3196C895202D3196C895D4
:14228A00302D0990F991E9910895FA93EA93BA93AA939A93E8
:14229E008A933A932A931A930A939A928A927A926A925A92FF
:1422B2004A923A922A921A920A920FB60A92089509900FBE08
:1422C60009901990299039904990599069907990899099903A
:1422DA00099119912991399189919991A991B991E991F9915C
:1422EE000895222321F0000F111F2A95FACF0895112319F048
:14230200000F1A95FBCF08950E94631314D0022F132F87FDAF
:1423160002C00C946613109501951F4F0C9466130E946313FE
:14232A0008D087FF02C00E942D110C946613BEE001C0BEE188
:14233E000E94691369F0B31B09F072F4882322F014E008E44A
:142352000C94361114E00EE40C94361114E00CE40C943611F8
:142366003395D2F330E0B85052F4B85F322F212F102F00E889
:14237A0006C0012F122F20E0B850B830D0F7BB2331F0369597
:14238E00279517950795BA95D1F70895222717FD2095332717
:1423A20027FD30950E94631302D00C946613882733231AF428
:1423B6000E942D118095B02FB12BB22BB32B11F40C947F1371
:1423CA00B6E105C0B39536952795179507953323C9F7222331
:1423DE0049F4B850212F102F00E0F9CFBA95000F111F221FA0
:1423F200DAF73B2F0C94A913DA92EA92FA928A932A923A9227
:142406004A929A93AA93BA930895B991A99199914990399042
:14241A0029908991F990E990D99008952A843B844C849D8574
:14242E0008950E851F85288939890895EADF0F920FB62896C9
:142442000FBE0F900895D8DFF2DFECCF02D00C949B100E947B
:14245600241212D00C941D1202D00C949B100E94241209D0BD
:14246A000C941D128A2F392F242D132D022D0C94A91390586A
:14247E000E9497139038C9F3303891F3B32FB91BA3F32AF028
:1424920039F402151305240518F40E948B13F4CFB83118F0B1
:1424A600222433244424B83028F0232C342C4424B850F9CF36
:1424BA00BB2329F0469437942794BA95D9F7B82FBA274AF096
:1424CE0018D098F62795179507953F5F73F60C94781313D06B
:1424E20011F40C947F1310F40E94721322231AF2000F111FF4
:1424F600221F3150CBF70C947813020D131D241D08950219EB
:14250A0013092409089502D00C949B100E94241223D00C944F
:14251E001D12BA93DD24EE24FF24B8E102151305240528F0EE
:14253200021913092409089401C08894DD1CEE1CFF1C000F8B
:14254600111F221FBA9571F70D2D1E2D2F2DB991089522244B
:14255A003324B0E24B2E91E4992329F1332351F10E949713DC
:14256E0039F18A270894390BEBF046943794279426951795FC
:142582000795CDDF22232AF0000F111F221F31507BF0B02F53
:14259600B69548F000233AF411232AF4B1E00B0FBB271B1F44
:1425AA002B1F0C94A91306C0BFE73B2F2B2B0FEF1FEF0895A2
:1425BE000027112722273327882708950E94241202D00C9471
:1425D2001D1202D0BB230895332382F0992342F0391740F043
:1425E60029F402151305240518F021F0B1E00895BFEF0895DA
:1425FA00BB2708959923D2F73917B0F3B9F7021513052405CE
:14260E0088F3A1F3F1CFBFE73B2F2B2B0FEF1FEF08950027B3
:142622001127222733278827089502D00C949B100E94241288
:142636000F92CF9204D0CF900F900C941D120E94971359F355
:14264A00903849F38A270894391FFBF20ED02F2D1E2D0D2D27
:14265E0022232AF03A95CC0C001F111F221F3F5F93F20C940F
:14267200A913229DC02CD12C249DE02CF12C129DC10CDB1E91
:14268600EB1EFB1E039DC10CDB1EEB1EFB1E139DC00CD11C2D
:14269A00EB1EFB1E049DC00CD11CEB1EFB1E239DD00CE11CF5
:1426AE00FB1E149DD00CE11CFB1ECC2022F48894DB1EEB1E3C
:1426C200FB1E08958A93BA930895B99189910895832F80789C
:1426D600220F331F3058089427953038089510952095019598
:1426EA001F4F2F4F0895BFE73B2F2B2BBFEF0B2F1B2F08951E
:1426FE00002711272227332788270895932F202E312E422E9B
:14271200A82F08952A923A924A929A93AA93F4DF89913991BA
:142726002991199109910895832FB0E8220F331F3B27BB0F0B
:14273A0027958078A92FB0E8440C991F9B27BB0F4794A078E0
:14274E0030380895220FB0E8B327880FB79527953B2F089529
:00000001FF
